:020000040800F2
:1000000000040020611100083113000831130008BA
:1000100031130008311300083113000831130008B0
:100020003113000831130008311300086113000870
:10003000311300083113000831130008311400088F
:100040003113000831130008311300083113000880
:100050003113000831130008311300083113000870
:10006000311300083113000831130008817F0008A4
:10007000B17F0008E17F000811800008418000087E
:1000800071800008A1800008F188000871890008CB
:10009000C1890008418A0008518A0008311300080C
:1000A00031130008018F000831130008118F000878
:1000B0003113000831130008D1900008719E000828
:1000C000719F000831130008311300083113000834
:1000D00031130008619A0008311300083113000839
:1000E00031130008311300083113000831130008E0
:1000F000311300083113000831130008D1800008C3
:1001000031130008B1930008F19000083113000882
:1001100031130008311300083113000831130008AF
:100120000181000831810008618100089181000887
:10013000C181000831130008311300083113000891
:1001400031130008311300083113000801A2000820
:10015000F181000821820008518200083113000853
:10016000311300083113000831130008311300085F
:10017000311300083113000831130008311300084F
:080180003113000831130008DF
:1001900010B582B006F00CFF01F0BAF94FF48053AD
:1001A000C4F202034FF400421A8300240DF0C8FE8B
:1001B0000DF02EFE0EF094FB0EF07AFD0EF030FEE8
:1001C0000EF0FEFE0FF064F84FF4D87140220A4B97
:1001D00000940A4801F0DCFB00940948094B4FF4F5
:1001E0009871402201F0D4FB0DF02AFE4FF47A7092
:1001F00001F01EFCF8E700BF81DA0008C0230020F0
:100200009022002031DA0008AFF30080AFF30080C5
:1002100081F0004102E000BF83F0004330B54FEAB7
:1002200041044FEA430594EA050F08BF90EA020F24
:100230001FBF54EA000C55EA020C7FEA645C7FEAB7
:10024000655C00F0E2804FEA5454D4EB5555B8BFDA
:100250006D420CDD2C4480EA020281EA030382EA4B
:10026000000083EA010180EA020281EA0303362DDD
:1002700088BF30BD11F0004F4FEA01314FF4801CB0
:100280004CEA113102D0404261EB410113F0004FC2
:100290004FEA03334CEA133302D0524263EB430379
:1002A00094EA050F00F0A780A4F10104D5F1200E17
:1002B0000DDB02FA0EFC22FA05F2801841F1000172
:1002C00003FA0EF2801843FA05F359410EE0A5F146
:1002D00020050EF1200E012A03FA0EFC28BF4CF077
:1002E000020C43FA05F3C01851EBE37101F000452D
:1002F00007D54FF0000EDCF1000C7EEB00006EEB3A
:100300000101B1F5801F1BD3B1F5001F0CD34908C3
:100310005FEA30004FEA3C0C04F101044FEA44521A
:1003200012F5800F80F09A80BCF1004F08BF5FEAA1
:10033000500C50F1000041EB045141EA050130BD81
:100340005FEA4C0C404141EB010111F4801FA4F124
:100350000104E9D191F0000F04BF01460020B1FA79
:1003600081F308BF2033A3F10B03B3F120020CDAB1
:100370000C3208DD02F1140CC2F10C0201FA0CF08F
:1003800021FA02F10CE002F11402D8BFC2F1200CF4
:1003900001FA02F120FA0CFCDCBF41EA0C019040AA
:1003A000E41AA2BF01EB0451294330BD6FEA0404F3
:1003B0001F3C1CDA0C340EDC04F11404C4F12002DE
:1003C00020FA04F001FA02F340EA030021FA04F3F0
:1003D00045EA030130BDC4F10C04C4F1200220FA47
:1003E00002F001FA04F340EA0300294630BD21FA85
:1003F00004F0294630BD94F0000F83F4801306BF4B
:1004000081F480110134013D4EE77FEA645C18BF3E
:100410007FEA655C29D094EA050F08BF90EA020FD5
:1004200005D054EA000C04BF1946104630BD91EACD
:10043000030F1EBF0021002030BD5FEA545C05D1D0
:100440004000494128BF41F0004130BD14F580040F
:100450003CBF01F5801130BD01F0004545F0FE4183
:1004600041F470014FF0000030BD7FEA645C1ABFB8
:10047000194610467FEA655C1CBF0B46024650EAEF
:10048000013406BF52EA033591EA030F41F400211B
:1004900030BD00BF90F0000F04BF0021704730B5A1
:1004A0004FF4806404F132044FF000054FF0000176
:1004B00050E700BF90F0000F04BF0021704730B537
:1004C0004FF4806404F1320410F0004548BF40420C
:1004D0004FF000013EE700BF42004FEAE2014FEA61
:1004E00031014FEA02701FBF12F07F4393F07F4F3C
:1004F00081F06051704792F0000F14BF93F07F4F6E
:10050000704730B54FF4607401F0004521F00041B0
:1005100020E700BF50EA010208BF704730B54FF036
:1005200000050AE050EA010208BF704730B511F03B
:10053000004502D5404261EB41014FF4806404F173
:1005400032045FEA915C3FF4DCAE4FF003025FEAF5
:10055000DC0C18BF03325FEADC0C18BF033202EB7D
:10056000DC02C2F1200300FA03FC20FA02F001FAD7
:1005700003FE40EA0E0021FA02F11444C1E600BF76
:1005800070B54FF0FF0C4CF4E06C1CEA11541DBF29
:100590001CEA135594EA0C0F95EA0C0F00F0DEF8F4
:1005A0002C4481EA030621EA4C5123EA4C5350EAD9
:1005B000013518BF52EA033541F4801143F480132A
:1005C00038D0A0FB02CE4FF00005E1FB02E506F0BB
:1005D0000042E0FB03E54FF00006E1FB03569CF010
:1005E000000F18BF4EF0010EA4F1FF04B6F5007F16
:1005F00064F5407404D25FEA4E0E6D4146EB060688
:1006000042EAC62141EA55514FEAC52040EA5E5010
:100610004FEACE2EB4F1FD0C88BFBCF5E06F1ED8BA
:10062000BEF1004F08BF5FEA500E50F1000041EBF1
:10063000045170BD06F0004646EA010140EA02009E
:1006400081EA0301B4EB5C04C2BFD4EB0C0541EAC0
:10065000045170BD41F480114FF0000E013C00F3D5
:10066000AB8014F1360FDEBF002001F0004170BDF9
:10067000C4F10004203C35DA0C341BDC04F1140412
:10068000C4F1200500FA05F320FA04F001FA05F29E
:1006900040EA020001F0004221F0004110EBD3706B
:1006A00021FA04F642EB06015EEA430E08BF20EA97
:1006B000D37070BDC4F10C04C4F1200500FA04F33A
:1006C00020FA05F001FA04F240EA020001F00041CC
:1006D00010EBD37041F100015EEA430E08BF20EA3F
:1006E000D37070BDC4F1200500FA05F24EEA020E87
:1006F00020FA04F301FA05F243EA020321FA04F0B6
:1007000001F0004121FA04F220EA020000EBD3706C
:100710005EEA430E08BF20EAD37070BD94F0000F6C
:100720000FD101F00046400041EB010111F4801FA0
:1007300008BF013CF7D041EA060195F0000F18BF51
:10074000704703F00046520043EB030313F4801F8D
:1007500008BF013DF7D043EA0603704794EA0C0F47
:100760000CEA135518BF95EA0C0F0CD050EA41065D
:1007700018BF52EA4306D1D181EA030101F00041DA
:100780004FF0000070BD50EA410606BF1046194602
:1007900052EA430619D094EA0C0F02D150EA01360E
:1007A00013D195EA0C0F05D152EA03361CBF10464F
:1007B00019460AD181EA030101F0004141F0FE41EE
:1007C00041F470014FF0000070BD41F0FE4141F472
:1007D000780170BD70B54FF0FF0C4CF4E06C1CEA72
:1007E00011541DBF1CEA135594EA0C0F95EA0C0F27
:1007F00000F0A7F8A4EB050481EA030E52EA0335E2
:100800004FEA013100F088804FEA03334FF0805502
:1008100045EA131343EA12634FEA022245EA11152F
:1008200045EA10654FEA00260EF000419D4208BFE0
:10083000964244F1FD0404F5407402D25B084FEA8D
:100840003202B61A65EB03055B084FEA32024FF439
:1008500080104FF4002CB6EB020E75EB030E22BF96
:10086000B61A754640EA0C005B084FEA3202B6EB56
:10087000020E75EB030E22BFB61A754640EA5C0005
:100880005B084FEA3202B6EB020E75EB030E22BF95
:10089000B61A754640EA9C005B084FEA3202B6EB96
:1008A000020E75EB030E22BFB61A754640EADC0055
:1008B00055EA060E18D04FEA051545EA16754FEAB7
:1008C00006164FEAC30343EA52734FEAC2025FEAD5
:1008D0001C1CC0D111F4801F0BD141EA00014FF064
:1008E00000004FF0004CB6E711F4801F04BF014335
:1008F0000020B4F1FD0C88BFBCF5E06F3FF6AFAE51
:10090000B5EB030C04BFB6EB020C5FEA500C50F1E0
:10091000000041EB045170BD0EF0004E4EEA113163
:1009200014EB5C04C2BFD4EB0C0541EA045170BD6A
:1009300041F480114FF0000E013C90E645EA060EAE
:100940008DE60CEA135594EA0C0F08BF95EA0C0FDC
:100950003FF43BAF94EA0C0F0AD150EA01347FF424
:1009600034AF95EA0C0F7FF425AF104619462CE7FB
:1009700095EA0C0F06D152EA03353FF4FDAE10465E
:10098000194622E750EA410618BF52EA43067FF4AF
:10099000C5AE50EA41047FF40DAF52EA43057FF43F
:1009A000EBAE12E7000000000000000000000000B5
:1009B0004FF0FF3C06E000BF4FF0010C02E000BF2B
:1009C0004FF0010C4DF804CD4FEA410C7FEA6C5C0E
:1009D0004FEA430C18BF7FEA6C5C1BD001B050EAB1
:1009E000410C0CBF52EA430C91EA030F02BF90EA9C
:1009F000020F0020704710F1000F91EA030F58BF5B
:100A0000994208BF90422CBFD8176FEAE37040F0BC
:100A1000010070474FEA410C7FEA6C5C02D150EA5A
:100A2000013C07D14FEA430C7FEA6C5CD6D152EA15
:100A3000033CD3D05DF8040B704700BF84461046DA
:100A400062468C461946634600E000BF01B5FFF7D9
:100A5000B7FF002848BF10F1000F01BD4DF808EDA9
:100A6000FFF7F4FF0CBF012000205DF808FB00BF7A
:100A70004DF808EDFFF7EAFF34BF012000205DF8D4
:100A800008FB00BF4DF808EDFFF7E0FF94BF012021
:100A900000205DF808FB00BF4DF808EDFFF7CEFF22
:100AA00094BF012000205DF808FB00BF4DF808ED61
:100AB000FFF7C4FF34BF012000205DF808FB00BF32
:100AC0004FEA410212F5001215D211D56FF4787376
:100AD000B3EB625212D94FEAC12343F0004343EA19
:100AE000505311F0004F23FA02F018BF40427047F4
:100AF0004FF00000704750EA013005D111F000407E
:100B000008BF6FF0004070474FF00000704700BF13
:100B10004A0011D212F5001211D20DD56FF478737C
:100B2000B3EB62520ED44FEAC12343F0004343EAD1
:100B3000505323FA02F070474FF00000704750EA1C
:100B4000013002D14FF0FF3070474FF00000704786
:100B50004BB942B9002908BF002802D04FF0FF313D
:100B6000084600F03DB882B0EC462DE9005000F098
:100B70001DF8DDF804E002B00CBC70470000000076
:100B8000F8B5164604460D461F4600F031F806FB40
:100B900001F300FB0737A6FB0023FB18A21A65EB45
:100BA0000303069CC4E90023F8BD00BFF8B5164650
:100BB00004460D461F4600F07BF900FB07F7A0FB3B
:100BC000062306FB0177FB18A21A65EB0303069CBC
:100BD000C4E90023F8BD00BF0000000000000000D1
:100BE000704700BF0000000000000000000000008F
:100BF00000292DE9F00F1D46C0F29D800024002D34
:100C0000C0F2948080460F4694461E46E3BB8A425B
:100C100055D9B2FA82F747B1C7F1200520FA05F697
:100C200001FA07F1BA403143B840170CB1FBF7F6AF
:100C3000030C1FFA82FC07FB16110CFB06F543EAB6
:100C400001439D4208D9711E9B1880F013819D427B
:100C500040F21081023E9B18591BB1FBF7F507FBD0
:100C6000151380B20CFB05FC40EA03418C4507D903
:100C70006B1E8A1880F00081944540F2FD80023D91
:100C800045EA0641002503E08B420CD900252946A0
:100C90000A462B4614B1524263EB430310461946F1
:100CA000BDE8F00F7047B3FA83F5002D40F0878060
:100CB0008B4201D38242EAD800250121E8E712B92C
:100CC0000126B6FBF2F2B2FA82F6002E39D18E1A64
:100CD000130C1FFA82FC0125B6FBF3F703FB176127
:100CE0004FEA10490CFB07F849EA0146B04506D91E
:100CF000791EB61802D2B04500F2D3800F46C8EB79
:100D00000606B6FBF3F103FB116380B20CFB01FC9A
:100D100040EA03439C4506D94E1E9A1802D29445D8
:100D200000F2C280314641EA0741B1E7E443524252
:100D300063EB430366E7404261EB41014FF0FF3450
:100D40005DE7B240C6F1200921FA09F720FA09F55A
:100D5000130C01FA06F1B7FBF3F845EA01091FFA93
:100D600082FC03FB18774FEA19410CFB08F541EAB6
:100D70000747B040BD420AD9BF1808F1FF3680F0DE
:100D80008E80BD4240F28B80A8F10208BF18791B0B
:100D9000B1FBF3F503FB15171FFA89F90CFB05F6F8
:100DA00049EA07418E4206D96F1E891871D28E42D8
:100DB0006FD9023D89188E1B45EA08458CE7C5F1BD
:100DC000200122FA01F306FA05F61E4327FA01F282
:100DD0004FEA164907FA05F720FA01F1B2FBF9F8D4
:100DE0000F433B0C1FFA86FA09FB18220AFB08FB8B
:100DF00043EA024293450CFA05FC08D9921908F11E
:100E0000FF314AD2934548D9A8F102089219CBEB99
:100E10000203B3FBF9F109FB1132BFB20AFB01FA7D
:100E200047EA02439A4506D94A1E9B1933D29A458E
:100E300031D902399B1941EA08410F0C1FFA8CF88D
:100E400008FB07F68AB24FEA1C4C08FB02F80CFBC1
:100E5000026202EB18420CFB07FC964288BF0CF5BD
:100E6000803CCAEB03030CEB124C63450ED305D058
:100E700000250DE70E46EFE61D4601E71FFA88F84C
:100E800000FA05F008EB0245A842F1D2013900252D
:100E9000FEE63D468FE71146CDE78846B7E7B04608
:100EA00075E7023FB6182AE702393CE70000000068
:100EB0002DE9F007144605460E46002B3DD18A4227
:100EC00049D9B2FA82F747B1C7F1200120FA01F2FD
:100ED00006FA07F6BC401643BD40220CB6FBF2F002
:100EE0002F0CA1B202FB106601FB00F347EA064695
:100EF000B34208D9471E361980F0F880B34240F259
:100F0000F58002383619F61AB6FBF2F302FB1362CB
:100F1000ADB201FB03F145EA0242914207D95E1EE0
:100F2000121980F0E580914240F2E280023B43EAF0
:100F300000400021BDE8F00770478B4243D8B3FA68
:100F400083F4002C42D18B4202D3824200F2DF8034
:100F500000210120EEE712B90127B7FBF2F4B4FA41
:100F600084F2002A40F088800A1B230CA7B20121DA
:100F7000B2FBF3F603FB16224FEA154C07FB06F013
:100F80004CEA0242904207D9121906F1FF3C02D204
:100F9000904200F2CE806646121AB2FBF3F003FBD9
:100FA0001023ADB207FB00F745EA03439F4207D980
:100FB000421E1B1980F09E809F4240F29B800238A7
:100FC00040EA0640B6E700210846B3E7C4F1200630
:100FD00022FA06F503FA04F32B434FEA134C21FAE5
:100FE00006F501FA04F120FA06F6B5FBFCF746EA2D
:100FF000010A1FFA83F80CFB17554FEA1A4108FB48
:1010000007F941EA0545A94502FA04F203D97E1E13
:10101000ED187FD33746C9EB0501B1FBFCF60CFB9D
:1010200016151FFA8AFA08FB06F84AEA05418845B0
:1010300003D9751EC91873D32E4646EA0746370CE6
:101040001FFA82FC0CFB07F5120CB3B20CFB03FC7D
:1010500002FB035303EB1C4302FB07F29D4288BFD4
:1010600002F58032C8EB010102EB134291424BD3EF
:1010700042D0304600215DE79440C2F1200521FABC
:1010800005F6230C20FA05F701FA02F1B6FBF3FC92
:1010900039430D0CA7B203FB1C6645EA064607FB65
:1010A0000CF8B04500FA02F508D936190CF1FF30FA
:1010B0003DD2B0453BD9ACF1020C3619C8EB060263
:1010C000B2FBF3F003FB10268AB242EA064207FBAA
:1010D00000F1914206D9461E121926D2914224D916
:1010E00002381219521A40EA0C4141E738460AE721
:1010F00033461CE7104663E71FFA8CFC00FA04F045
:101100000CEB03439842B4D2701E002112E7214633
:1011100020460FE7A9457FF67DAF023FED187AE73D
:10112000884589D9023EC91887E73046DAE7844600
:10113000C4E7023E12192FE7000000000000000083
:10114000704700BFAFF30080AFF30080AFF30080C3
:10115000FEE700BFAFF30080AFF30080AFF3008085
:1011600072B6644C84F30988022383F31488BFF3B6
:101170006F8F61486149884218D2CA1C051D531BF4
:1011800023F00302034610184FF0553183421960D3
:10119000C2F380020AD01AB185422B46296005D0DD
:1011A0001D1D5960083383426960F9D15448A0423B
:1011B00018D25449041D0A1B22F0030503462818BF
:1011C0004FF0553183421960C5F380020AD01AB13D
:1011D00084422346216005D01D1D59600833834297
:1011E0006960F9D109F0FCFA4749484881421BD2AD
:1011F000C61C0C1D321B464822F00302161D056852
:101200000423B3420D60C2F380020DD022B14568C1
:101210000823B342256007D01A1D1D5884585D501D
:101220000833B3428C50F7D13A483B49884217D231
:10123000CB1C041D1A1B22F00305034628180021AD
:1012400083421960C5F380020AD01AB18442234652
:10125000216005D01D1D5960083383426960F9D1B2
:10126000FFF76EFF2D4D2E498D421DD2CC1C2E1D39
:10127000A71BB808471C01242A6800EA0408904705
:10128000BC4211D0B8F1000F05D002243368984752
:10129000BC42354608D0696888470234A8682E1DCC
:1012A00080470835BC42F6D1FEF772FF1D4D1E4A3D
:1012B00095421DD2D41C2E1DA71BBB085F1C012408
:1012C000296803EA04088847BC4211D0B8F1000F2E
:1012D00005D0022430688047BC42354608D06A6891
:1012E00090470234AB682E1D98470835BC42F6D1B2
:1012F000FFF72EFF0008002000000020000400205F
:10130000000400200308002000080020181400201A
:10131000D081010818140020F05200208801000834
:10132000880100088801000888010008AFF30080E8
:10133000FEE700BFAFF30080AFF30080AFF30080A3
:1013400072B6FEE7AFF30080AFF30080AFF300802A
:1013500000F0AEFA00DF00BFAFF30080AFF3008013
:10136000EFF30983203383F30988002383F3118883
:10137000704700BFAFF30080AFF30080AFF3008091
:1013800008B54FF46D43CEF200034FF44072C0F243
:10139000FA520021996007201021DA6000F090F8DD
:1013A0000A204FF4007100F08BF80B208021BDE87B
:1013B000084000F085B800BFAFF30080AFF30080B5
:1013C000202383F311884FF46D43CEF20003586855
:1013D00010F4006319D0EFF30983A3F1200282F324
:1013E000098810494FF080708A6943F8040CD07F57
:1013F00009689268896858B1914294BF002201221D
:1014000062B1094A43F8082C704783F3118870478A
:10141000914234BF00220122002AF2D1034843F84E
:10142000080C7047301500205113000854130008B1
:1014300008B5202383F3118800F0A2F8002383F37A
:101440001188BDE80840FFF7BBBF00BFAFF30080C5
:101450002DE9F04FC1F80CD0D0F80CD0BDE8F08FDA
:10146000002383F311882846A04700F041FB704712
:10147000F0B44FF461438408CEF20003C03400F0AE
:10148000030553F82470ED00FF26420906FA05F61D
:1014900027EA060601FA05F500F01F0002F16007D1
:1014A000012101FA00F02E4343F8246043F827009D
:1014B00043F82200F0BC7047AFF30080AFF3008028
:1014C00082084FF46D43CEF20003063200F00300B1
:1014D00030B4C00053F82250FF2404FA00F425EA87
:1014E000040401FA00F10C4343F8224030BC704779
:1014F000024B034A98698261FEE700BF3015002065
:1015000010580108AFF30080AFF30080AFF3008004
:1015100000B583B0FFF734FF00F0F2F800F060F898
:1015200001F07EFB01F0C4FB41F218404021C2F201
:10153000000000F0CDF941F23051C2F20001012269
:1015400088610277002383F3118862B645F6200094
:101550008969C0F601008861009341F2604041F260
:10156000F143C021C0F60003C2F2000000F010FAFF
:1015700003B000BDAFF30080AFF30080AFF3008095
:1015800038B5134B9869C27F0AB1511EC177036AFF
:10159000104C5A1C0262E0682268411CA242E160C1
:1015A00014D09568013D956085B91368D1685C6079
:1015B0002360D560002383F31188106988472023B6
:1015C00083F31188226890680028EED038BD00BFF0
:1015D0003015002020150020AFF30080AFF300800D
:1015E00041F22053C2F200034FF0FF3200205B6053
:1015F0001B609A60D8607047AFF30080AFF3008043
:1016000070B40C4E03613468C260A568A94204D965
:101610002468491BA5688D42FAD363680460B4420C
:10162000436018606060816002D0A068411AA160C8
:1016300070BC704720150020AFF30080AFF300802E
:101640000368074A934203D09968826889189960B1
:1016500042681360036800215A60C160704700BF90
:1016600020150020AFF30080AFF30080AFF30080BF
:10167000094B8142DA6805D9824201D38A4203D3F9
:1016800000207047824201D3012070478A422CBF5C
:1016900000200120704700BF20150020AFF300801C
:1016A000202383F31188037F0D2B11D8DFE803F08B
:1016B00020101007100B101010101010100B416AA2
:1016C0008A68531C8B6090E80C001A6001684B60BC
:1016D0004FF0FF3242628168074B002202771B689D
:1016E0009A688A42FBD2596803604160086058607A
:1016F000002383F31188704730150020AFF300807A
:1017000041F23053C2F2000300225B601B609A601A
:101710005B611B61704700BFAFF30080AFF30080D7
:1017200000228168054B02771B689A688A42FBD2C7
:1017300059680360416008605860704730150020A8
:1017400041F23053C2F2000310B499691A68087765
:1017500014201468C87701201077104663601C605D
:101760009A6110BCFFF774BEAFF30080AFF3008046
:1017700030B54B1C87B0054611D00B4C0B4AA36902
:1017800001A8FFF73DFF2846FFF7DAFF049B13B1DE
:1017900001A8FFF755FFA069406A07B030BDFFF709
:1017A000CFFF014CF7E700BF30150020A11600085D
:1017B000F0B4144F8568BE690446B06861620023C6
:1017C00085420CD82377394609688A689542FBD947
:1017D00048682160606004604C60F0BC70473377FB
:1017E000394609688A689042FBD948683160706060
:1017F00006604E600123204631462377BC61F0BC71
:10180000FFF726BE30150020AFF30080AFF3008055
:101810000E4B18689969026830B453601A608C687E
:1018200098610125142300220577CB770A770346B8
:1018300000E01B689A68A242FBD25A680B604A60BB
:101840001160596030BCFFF703BE00BF30150020A7
:101850000D4B18689969026830B453608C681A603F
:1018600001259861002305770B77034600E01B688C
:101870009A68A242FBD85A680B604A6011605960AE
:1018800030BCFFF7E5BD00BF30150020AFF300808E
:10189000044B1A68986991688368994200D8704728
:1018A000FFF7D6BF30150020AFF30080AFF3008004
:1018B000034B9869C17F09B1FFF7CABFFFF7A8BF03
:1018C00030150020AFF30080AFF30080AFF300804D
:1018D000F0B441F23054C2F20004002265690164A0
:1018E000046100F12C06816000F1280745614FF08A
:1018F000020C60610121142480F81CC04277C47777
:10190000C2638263026281778261286187620663B3
:10191000C662F0BC704700BFAFF30080AFF3008039
:101920002DE9F00341F23055C2F20005A1F1240C7B
:1019300000EB0C076969C76040F80C30069B7B60C0
:1019400041F26143C0F600033B6202230377142394
:101950000026904600F1280900F12C02C3770123EC
:101960000561C0F808804161044668614677C0F8A7
:101970004080C66386630662837786610861C0F82B
:1019800028900263C262BDE8F0037047AFF30080A5
:1019900010B51C4682B0202383F311882346049C93
:1019A0000094FFF7BDFF00210446FFF701FF00236D
:1019B00083F31188204602B010BD00BFAFF3008052
:1019C00010B5202383F31188084B9A69146C916831
:1019D0008C4201D0814200D290601064FFF758FF22
:1019E000002383F31188204610BD00BF301500206E
:1019F00010B52023044683F311880021FFF7D8FE99
:101A0000002383F31188204610BD00BFAFF3008090
:101A1000202383F31188437F43F00401417700239F
:101A200083F31188704700BFAFF30080AFF30080ED
:101A300008B50146202383F311880620FFF798FE9E
:101A4000002383F3118808BDAFF30080AFF300805B
:101A500008B5202383F31188054BD968411A02D0B9
:101A60000620FFF785FE002383F3118808BD00BF21
:101A700020150020AFF30080AFF30080AFF30080AB
:101A800008B5202383F31188064B1A68986991687A
:101A90008368994201D3FFF7BBFE002383F31188CB
:101AA00008BD00BF30150020AFF30080AFF3008009
:101AB00038B50E4B9C692546606255F8280FA84240
:101AC00006D00168A162FFF72BFEA06AA842F8D1F8
:101AD000607F830704D1636922691A6121694B61C0
:101AE0000E20BDE83840FFF72BBE00BF30150020A8
:101AF000202383F31188FFF7DBBF00BFAFF3008023
:101B000038B50446202383F31188037F0E2B07D0BA
:101B1000826A0848816907200A60A162FFF710FE07
:101B2000656A002383F31188204600F019F82846DF
:101B300038BD00BF30150020AFF30080AFF3008048
:101B4000202383F31188837F591C8177002383F33B
:101B500011887047AFF30080AFF30080AFF30080CF
:101B60000146202383F31188827F531EDAB28277E5
:101B7000002383F3118812B9037F0E2B00D0704726
:101B8000427F02F00303012B09D0022BF7D14369F6
:101B90000269406C1A610A69536101F0B9B943697D
:101BA00002691A6101694B6101F0EAB8AFF3008084
:101BB000F0B583B00D4617461E4601F099F804466D
:101BC00090B1202383F31188089C334629463A4676
:101BD0000094FFF7A5FE0123437700210446FFF799
:101BE000E7FD002383F31188204603B0F0BD00BF5A
:101BF0002DE9F04182B005460E4690461F4601F0A1
:101C00006FF9044690B1202383F311886968009727
:101C100043463246FFF784FE0223437745640021A2
:101C20000446FFF7C5FD002383F31188204602B068
:101C3000BDE8F081AFF30080AFF30080AFF3008028
:101C4000202383F3118841F23052C2F200020023B4
:101C50001069817F4A1C827783F31188704700BF27
:101C600010B5202383F31188074B04699C4209D0E7
:101C7000A17F4A1CA277002383F31188FFF770FF2E
:101C8000204610BD0024F6E730150020AFF3008099
:101C90004060006081607047AFF30080AFF3008068
:101CA000F8B5876881600137002F044629DC406859
:101CB000436863601C60FFF733FD6FF0010607F0B7
:101CC000010146627D1CEFB149B160684268626003
:101CD0001460FFF725FD0135012D466213D06068C1
:101CE000436863601C60FFF71BFD466260684168E3
:101CF00061600C60FFF714FD6A1C46620235002A21
:101D0000EDD1F8BDF8BDF8BDAFF30080AFF30080B2
:101D100008B5202383F31188FFF7C2FFFFF7B8FD52
:101D2000002383F3118808BDAFF30080AFF3008078
:101D300082680346501E002810B5986001DB002021
:101D400010BD074CA26953625968136051600320AB
:101D50005A600A60FFF7F4FCA369586A10BD00BF1F
:101D600030150020AFF30080AFF30080AFF30080A8
:101D700008B5202383F31188FFF7DAFF002383F3EC
:101D8000118808BDAFF30080AFF30080AFF300808F
:101D900003468068421E002A10B40C469A6002DB9B
:101DA000002010BC704759B1074CA26953625C68AF
:101DB000032082E818005A60226010BCFFF7D8BCEC
:101DC00098604FF0FF30ECE730150020AFF3008053
:101DD00008B5202383F31188FFF7DAFF002383F38C
:101DE000118808BDAFF30080AFF30080AFF300802F
:101DF00008B50246202383F311888368581C002805
:101E0000906003DD002383F3118808BD1068036828
:101E1000002113605A60FFF7CBFCF3E7AFF30080BB
:101E200082680346501C0028986000DD70471A68DD
:101E30001168104619604B6000235362FFF770BCB5
:101E4000F8B50D1E044637DD83680026581C6A1E4F
:101E5000B042A06002F001072FDD013D2CD077B128
:101E6000A3685A1C002AA2602FDD013D07D134E08F
:101E7000A168481C0028A06014DD013D1BD0A068AB
:101E8000431C002BA36005F1FF35F1DC20680268DC
:101E900022605460FFF744FC4662A168481C002899
:101EA000A060EADC2068036823605C60FFF738FC10
:101EB000013D4662E3D1F8BDF8BD206801682160AC
:101EC0004C60FFF72DFC4662C7E72068016821607F
:101ED0004C60FFF725FC4662C7E7F8BDAFF3008012
:101EE00010B5024682B0202383F311888368581C02
:101EF0000028906019DD8A68501E0028886007DB82
:101F0000FFF7C6FC0020002383F3118802B010BD48
:101F10000B4C4B68A469032084E80A004C601C60E9
:101F20006162FFF70DFC606AEDE7106803681360FB
:101F30005A600191FFF7F4FB002141620199DAE751
:101F400030150020AFF30080AFF30080AFF30080C6
:101F50000023406000608360704700BFAFF30080E3
:101F6000F8B52F4A836894690546002B51D0A168C3
:101F70009868814206D91A7F9960042A31D0052ACF
:101F80001CD092B128460068854203D08368A168BE
:101F90008B42F8D242682060626044600420146082
:101FA0006562BDE8F840FFF7CBBB93E8060011601F
:101FB000196818464A60FFF7B3FBE3E758681F68E3
:101FC0005E6A07601F68324678601268964202D0E7
:101FD00090688842F9D251681A6059600B6053606A
:101FE000D0E758681F685E6A07601F6832467860ED
:101FF0001268964212D090688842F9D251681A60ED
:1020000059600B605360B368A1689A688A42B2D382
:10201000B8E7E36B8460C360E063F8BD3246EDE788
:1020200030150020AFF30080AFF30080AFF30080E5
:1020300008B5202383F31188FFF792FF002383F371
:10204000118808BDAFF30080AFF30080AFF30080CC
:102050000246202383F31188836823B100200023E4
:1020600083F31188704704488369D96B9360D1600A
:102070000120DA63F3E700BF30150020AFF30080E2
:10208000154A38B59069202383F31188C46B2568FD
:10209000E368A542C3631CD0016C4BB11A689A4235
:1020A00003D09268914238BF1146DB68002BF5D10E
:1020B0002B68EA6B8160236028465C600021A56084
:1020C000E260EC63FFF774FB002383F31188204682
:1020D00038BD0023A360F7E730150020AFF3008080
:1020E00038B5124B9869C46B2568E368A542C36391
:1020F00018D0016C4BB11A689A4203D09268914291
:1021000038BF1146DB68002BF5D12B68EA6B816084
:10211000236028465C60A560E260EC63FFF700FB8B
:10212000204638BD0021A160204638BD3015002072
:10213000134A70B52023946983F31188E36BD3B1FC
:1021400000260BE01168D56B196010464B609A6051
:10215000DD60D363FFF7E4FAE36B43B11A68D96833
:102160009A42E163EED19E60E36B002BF6D1206CC6
:10217000A060FFF78DFB002383F3118870BD00BFC3
:1021800030150020AFF30080AFF30080AFF3008084
:1021900040600060704700BFAFF30080AFF3008085
:1021A00008B50246202383F311880068904205D0C9
:1021B0000368002113605A60FFF7FAFA002383F3E3
:1021C000118808BDAFF30080AFF30080AFF300804B
:1021D00008B503460068984206D002681A6053604A
:1021E000FFF79EFA0021416208BD00BFAFF30080F7
:1021F00038B504460068A0420AD06FF001050368B4
:1022000023605C60FFF78CFA45622068A042F6D13B
:1022100038BD00BFAFF30080AFF30080AFF30080A4
:1022200008B5202383F31188FFF7E2FFFFF730FBA7
:10223000002383F3118808BDAFF30080AFF3008063
:10224000F8B5104B05469C69FFF74AFF2E46074636
:102250006562284603E08168A268914210D3006855
:102260008542F8D17368266063601C607460052045
:10227000FFF766FA646A3846FFF772FE2046F8BD3B
:102280000646EFE730150020AFF30080AFF3008083
:1022900008B5202383F31188FFF7D2FF002383F3CF
:1022A000118808BDAFF30080AFF30080AFF300806A
:1022B0002DE9F04106468846FFF712FF0E4B9A695A
:1022C0000746334656621B689E4203D09D68946859
:1022D000A542F8D25C68052082E8180041462260D9
:1022E0005A60FFF745FA431C044602D03846FFF710
:1022F00037FE2046BDE8F08130150020AFF30080A6
:1023000008B5202383F31188FFF7D2FF002383F35E
:10231000118808BDAFF30080AFF30080AFF30080F9
:1023200030B4202383F3118841F23053C2F200030A
:1023300004689D690C600024016023464D608A603A
:10234000CC6083F3118830BC704700BFAFF30080CE
:10235000202383F31188024600E01A461368834263
:1023600003D09942F9D108681060002383F31188E3
:10237000704700BFAFF30080AFF30080AFF3008081
:1023800010B4202383F3118841F23052C2F20002CC
:10239000002391698A6B22EA00048C6383F311881D
:1023A000104010BC704700BFAFF30080AFF3008057
:1023B000202383F3118841F23052C2F2000200233D
:1023C0009269916B0843906383F31188704700BF53
:1023D00008B5826B037F1143082B81630BD0092B57
:1023E00000D008BD426A11408A42FAD1FFF798F93D
:1023F0000021416208BD436A1942F7D108BD00BF00
:1024000008B5202383F31188FFF7E2FFFFF740FAB6
:10241000002383F3118808BDAFF30080AFF3008081
:1024200070B50468A04205460E4608D0201D0BC8B2
:102430003343E360FFF7CCFF2468A542F6D170BDBB
:1024400008B5202383F31188FFF7EAFFFFF720FA8E
:10245000002383F3118808BDAFF30080AFF3008041
:10246000F8B50D46074689B10024012601E0013484
:1024700065B106FA04F32B42F9D057F82420204620
:1024800025EA030501349047002DF2D1F8BD00BFC5
:1024900038B50D4B05469C69202383F31188A16B49
:1024A00010EA010206D160620820FFF749F9A16B2A
:1024B00005EA01025042104021EA0001A163002315
:1024C00083F3118838BD00BF30150020AFF30080C2
:1024D00038B50B4B05469C69202383F31188A16B0B
:1024E000084006D108206562FFF72AF9A16B05EACA
:1024F000010021EA0001A163002383F3118838BDA4
:1025000030150020AFF30080AFF30080AFF3008000
:1025100038B50C4B04469D69202383F31188A86BC2
:1025200004EA0002A24204D009206C62FFF708F915
:10253000A86B20EA0400A863002383F311882046D7
:1025400038BD00BF30150020AFF30080AFF300802E
:10255000114B70B59E690546202383F31188B06B3B
:1025600015EA00040ED121B9234683F311882046D1
:1025700070BD08207562FFF7FBF80028F4DBB06B34
:1025800005EA000461420C4020EA0400B063002325
:1025900083F31188204670BD30150020AFF3008012
:1025A000104B70B59E690446202383F31188B26BEB
:1025B00014EA02050ED121B92B4683F3118828466F
:1025C00070BD08207462FFF7D3F80028F4DBB26B0B
:1025D00004EA020522EA0502B263002383F31188AC
:1025E000284670BD30150020AFF30080AFF30080A7
:1025F00038B5134B04469D69202383F31188AA6BD9
:1026000004EA0203A3420DD029B90B4683F31188D3
:102610000C46204638BD09206C62FFF7A9F8002857
:1026200008DBAA6B22EA0402AA63002383F3118861
:10263000204638BD002383F311881C46F8E700BF0D
:1026400030150020AFF30080AFF30080AFF30080BF
:102650000E4B70B59C69202383F3118800F12C0583
:102660006562067F036B25600C2E61636360046303
:102670001C6007D00A20FFF763F8606A002383F329
:10268000118870BDFFF74CF8F4E700BF301500204B
:1026900010B5202383F311880B4CA3691A4652F816
:1026A0002C0F904208D00168D9624A600B220023A7
:1026B000027783F3118810BD0C20FFF741F8A3695E
:1026C0001A4652F82C0FEEE730150020AFF30080C9
:1026D00008B5202383F31188FFF76AF8002383F3FA
:1026E000118808BDAFF30080AFF30080AFF3008026
:1026F00038B504460B4601EB820500F11C0011467B
:10270000E360A36084E82800FFF7C2FA04F1100038
:102710000021BDE83840FFF7BBBA00BFAFF300802F
:1027200010B52023044683F3118803684168C36011
:10273000CA1A9110A36000F11C00FFF7B1FA04F16E
:1027400010000021FFF7ACFAFFF7A2F8002383F393
:10275000118810BDAFF30080AFF30080AFF30080AD
:1027600070B504460E4600F11C001146FFF710FB41
:10277000054678B9A368626843F8046B9342A36086
:1027800028BF236804F1100028BFA360FFF748FBAF
:10279000FFF77EF8284670BDAFF30080AFF30080EE
:1027A00008B5202383F31188FFF7DAFF002383F3B2
:1027B000118808BDAFF30080AFF30080AFF3008055
:1027C000426A002A10B50FDD83684468013A42620C
:1027D00043F8041BA342836024BF03688360103066
:1027E000FFF71EFB002010BD4FF0FF3010BD00BFF3
:1027F00070B504460E4600F11C001146FFF7C8FAFA
:10280000054660B9E3682268191F9142E16008D368
:1028100004F110000E60FFF703FBFFF739F82846BC
:1028200070BD6068011FE160F2E700BFAFF3008098
:1028300008B5202383F31188FFF7DAFF002383F321
:10284000118808BDAFF30080AFF30080AFF30080C4
:10285000426A002A10B510DDC3680468043B013ADF
:10286000A3424262C36002D24368043BC36010309B
:102870001960FFF7D5FA002010BD4FF0FF3010BDF2
:1028800070B504460E4600F110001146FFF780FABD
:10289000054680B9E368626853F8041B93423160CF
:1028A000E36028BF236804F11C0028BFE360FFF742
:1028B000B7FAFEF7EDFF284670BD00BFAFF300800A
:1028C00008B5202383F31188FFF7DAFF002383F391
:1028D000118808BDAFF30080AFF30080AFF3008034
:1028E0008269002A10B510DDC3684468013A82612C
:1028F00053F8042BA3420A60C36024BF0368C3607B
:102900001C30FFF78DFA002010BD4FF0FF3010BDD6
:1029100010B4024659B1084B9B69586244680D20B7
:1029200083E814005360236010BCFEF721BF4FF012
:10293000FF3010BC704700BF30150020AFF300809F
:1029400010B4C361019B40608A1800240060846059
:1029500041618161C1600261036210BC704700BFC8
:1029600038B50446C368006863610021A042A361D2
:10297000A1600AD06FF00105026822605460FEF782
:10298000CFFE45622068A042F6D138BDAFF300808B
:10299000426908B5034680698242986818D00130C0
:1029A000986002F8011B19695A618A4228BFDA68E7
:1029B000186828BF5A61984208D002681A605360AC
:1029C000FEF7AEFE00234362184608BD002008BD96
:1029D0000028E4D06FF0030008BD00BFAFF3008013
:1029E00070B5202304460E4683F31188C36903B1F2
:1029F0009847A568204631463DB9FFF789FF002872
:102A0000F7DA2B4683F3118870BDA1692269013D75
:102A1000A56011F8010B9142A16124BFE168A16199
:102A2000002383F3118870BDAFF30080AFF3008003
:102A30002DE9F0471E460446C769202383F3118819
:102A40004FF0000801F1010901EB020A0FB1204625
:102A5000B847A568204631464DB9FFF759FF002811
:102A6000F7D02B4683F311884046BDE8F087A36971
:102A7000013DA56013F8012B09F8012C2069A36121
:102A8000834224BFE368A361002383F31188D14507
:102A900008F10108E8D0202383F3118809F1010926
:102AA000D4E700BFAFF30080AFF30080AFF3008046
:102AB00010B4C361019B40608C180060826041616A
:102AC0008161C1600461036210BC7047AFF3008094
:102AD00038B50269C368044600686361D11AA04230
:102AE000A361A1600AD06FF00105036823605C60F8
:102AF000FEF716FE45622068A042F6D138BD00BF41
:102B0000F8B504460F461646202383F31188A568BE
:102B1000204631463DB9FFF7FBFE0028F7DA2B4689
:102B200083F31188F8BD6369013DA56003F8017B5B
:102B300022696361934228BFE368E16928BF63614A
:102B400009B120468847002383F311881846F8BD51
:102B5000826941699142034610B5806816D0441CD1
:102B60009C6012F8014B19699A618A4228BFDA68A1
:102B7000186828BF9A61984206D002681A605360AC
:102B8000FEF7CEFD00234362204610BD0028E6D0AC
:102B90006FF0020010BD00BFAFF30080AFF3008004
:102BA0002DE9F0479A46044688461646D0F81C9010
:102BB000202383F311880027A56820466B1EEDB102
:102BC000A360656918F8011B05F8011B226965619E
:102BD000954224BFE2686261B9F1000F00D0C84796
:102BE000002383F311880137013E10D0202383F3A3
:102BF0001188A56820466B1E002DE1D12046514664
:102C0000FFF786FE0028D7D02B4683F3118838467D
:102C1000BDE8F087AFF30080AFF30080AFF3008032
:102C200041F2505241F24C534CF200010648C2F2BC
:102C30000002C2F20003C2F2010120F0070021F0FD
:102C40000701106019607047F7520020AFF3008051
:102C5000202383F31188094B09491A680968073052
:102C600020F00700891A88429ABF101818600022C5
:102C7000002383F311881046704700BF50150020D1
:102C80004C150020AFF30080AFF30080AFF300805D
:102C900041F24C5241F25053C2F20002C2F2000320
:102CA00010681968401A7047AFF30080AFF30080D6
:102CB00041F25853C2F2000342F651410022C0F6DD
:102CC000000103F1100019609A60DA60FFF740B963
:102CD000002303608160C360083A10300B604A60D3
:102CE000FFF736B9AFF30080AFF30080AFF3008099
:102CF000F8B5204E002818BF0646073106F110002F
:102D000021F0070506F10804FFF792F900E01C46E0
:102D10002368FBB15A689542F9D805F10801914240
:102D200015D84FF6F870CFF6FF70401B03EB010E7D
:102D300082181868CEF8042058505D60C4F800E08E
:102D40001C4644F8086BFFF79BF92046F8BD19684C
:102D50002160F5E7FFF794F932684AB105F1080000
:102D6000904728B100F10804066045602046F8BD90
:102D70000024EAE758150020AFF30080AFF300808D
:102D800070B50646A0F1080450F8080C00F10805DB
:102D90001030FFF74DF92B46AB421A6801D0A34221
:102DA00002D21AB1944201D31346F5E756F8041C37
:102DB00046F8082C1C6001F1080256F8085CA018BF
:102DC000A84209D05A6802F1080019188C4211D0A3
:102DD000BDE87040FFF754B94068A258091808319F
:102DE00046F8041C46F8082C5A6802F10800191825
:102DF0008C42EDD156F8040C56F8081C1218083213
:102E000083E80600E4E700BFAFF30080AFF3008083
:102E100038B50E4C002818BF044604F110000D46CA
:102E2000FFF706F9A3686BB10022144658681B68C7
:102E300012180134002BF9D105B12A60FFF720F9EF
:102E4000204638BD1A461C46F6E700BF581500203C
:102E50000023036041608260704700BFAFF30080D1
:102E600070B4002A36D0013A02F00105202383F322
:102E70001188046800230C60016083F311884368A3
:102E8000C9183AB365B1202383F31188046800237D
:102E90000C60016083F311884368013A194419D02A
:102EA000202383F31188046800230C60016083F3FE
:102EB00011884568013A4C19202383F3118806686C
:102EC00000234E51046083F311884368013A04EBF8
:102ED0000301E5D170BC7047AFF30080AFF3008011
:102EE00008B50246202383F31188006828B10168E1
:102EF0001160002383F3118808BD9368002BF8D07C
:102F000050689847F5E700BFAFF30080AFF300804B
:102F1000202383F31188026800230A60016083F391
:102F200011887047AFF30080AFF30080AFF30080EB
:102F300041F67033C2F2000301221A60704700BFED
:102F400038B50B4D4C24286803682D219A689047AA
:102F500028680168013C8B682D219847013CF2D11B
:102F6000034804490068026813680222984738BD84
:102F7000A41B0020D8740108AFF30080AFF30080D9
:102F8000F0B585B0002837D00DF101054CF6CD46DF
:102F90002B46CCF6CC46A6FB0012D40804EB8401E9
:102FA000A0EB41003030C1B2204603F8011C1C46A2
:102FB00001330028EFD16A4694421BD9601BC30736
:102FC000114F11D5386803689A68904714F8021CAD
:102FD000013C09E0386814F8021C0368661E9A6810
:102FE000904716F8021C023C386803689A689047BC
:102FF000AC42EFD105B0F0BD034908680368302149
:103000009A689047F6E700BFA41B0020AFF300804A
:1030100038B5017849B1054D0446286803689A68B7
:10302000904714F8011F0029F7D138BDA41B0020D8
:1030300038B50178084D41B10446286803689A689C
:10304000904714F8011F0029F7D128680349036845
:1030500002221B68984738BDA41B0020D8740108C1
:10306000202383F3118841F67432C2F20002002358
:10307000116801F8010B116083F31188704700BFDC
:1030800041B9054A054901231360054A0B601060E8
:1030900018467047002070476C1B0020781B0020EA
:1030A000681B0020AFF30080AFF30080AFF3008017
:1030B000DFF874C0F0B4184FDCF80060F21BD207E0
:1030C0003B4614D5BE4217D911F8012B3C787B1C26
:1030D00094420CD016E01B7812F8015BAB4204F16D
:1030E00001030FD14D782478511CAC420AD19E4285
:1030F0000A4603F10104EED80B781BB9CCF8007036
:10310000184607E0054A064B01211160054A19607F
:1031100010600846F0BC7047A81B00206C1B002004
:10312000781B0020681B0020741B0020AFF3008078
:1031300010B5044608461146FEF79AFA40B9054A0A
:10314000054806490123036013600C60184610BD52
:10315000002010BD6C1B0020781B0020681B002085
:1031600010B50C4C206808B1FEF752FC606808B13D
:10317000FEF74EFCA06808B1FEF74AFCE06808B113
:10318000FEF746FC206918B1BDE81040FEF740BCD0
:1031900010BD00BF901B0020AFF30080AFF3008094
:1031A00010B5124C206818B1FEF7AAFC002323606A
:1031B000606820B1FEF7A4FC0C4800224260A068C1
:1031C00020B1FEF79DFC094B00219960E06820B119
:1031D000FEF796FC05480022C260206920B1FEF788
:1031E0008FFC024B0021196110BD00BF901B002015
:1031F000114B30B49C694FF47A7101FB00F0226AE4
:1032000044F6D355A0F57A73C1F26205501CA5FBB4
:10321000035100EB9115AA42236A03D29A4203D9C3
:1032200030BC70479A42F6D99D4294BF00230123D7
:10323000002BF0D1F4E700BF30150020AFF3008081
:1032400008B50120FEF7F4FB41F22053C2F200035F
:10325000D86808BDAFF30080AFF30080AFF3008003
:1032600041F67033C2F2000310B500241C60202325
:1032700083F311884FF47A7101FB00F044F6D352C6
:10328000A0F57A70C1F26202A2FB0023990941F60F
:103290007C3042F631722346C2F200000131C0F6A2
:1032A0000002FEF7ADF9234683F3118810BD00BF7D
:1032B0002DE9F04F994C9A4D206083B09948FFF763
:1032C000B7FE9948FFF7B4FE9848FFF7B1FE2A21F0
:1032D000206803689A68904715F8011F0029F7D104
:1032E0009348944EFFF7A4FE2A2120680768BD6822
:1032F000A84716F8011F0029F7D18F488F4EFFF716
:1033000097FE2A21206803689A68904716F8011FE3
:103310000029F7D18A488B4FFFF78AFE2A212068BF
:103320000568AE68B04717F8011F0029F7D1864835
:10333000864FFFF77DFE2A21206803689A68904730
:1033400017F8011F0029F7D18148824DFFF770FE61
:103350002A2120680668B768B84715F8011F0029B8
:10336000F7D17D487D4DFFF763FE2A212068036871
:103370009A68904715F8011F0029F7D17848794ECF
:10338000FFF756FE2A2120680768BD68A84716F88F
:10339000011F0029F7D1744B744800910193FFF786
:1033A00047FE6048724EDFF80092724FFFF740FE12
:1033B00041F678300099C2F200008A4601600AF1B5
:1033C000010A4FF0000857F8042B002A00F084800F
:1033D000694DFFF7B5FD2D21206802689368984775
:1033E00015F8011F0029F7D15046FFF7C9FD4B49D9
:1033F000624D086802682E21936808F10108984719
:103400004046FFF7BDFD2021206802689368984779
:1034100015F8011F0029F7D157F8040C0568297821
:1034200039B1206802689368984715F8011F002990
:10343000F7D15348534DFFF7FBFDC820FEF7F8FACC
:10344000514957F804BCC6F8009000200860486055
:103450008860C8600861DBF80420286002B19047EA
:10346000DBF80C309847DBF8081001B18847FFF70C
:1034700097FE2D68002D00F0A180444D2D2120687D
:1034800002689368984715F8011F0029F7D1404852
:10349000404D0068FFF774FD2021206802689368A2
:1034A000984715F8011F0029F7D1316849450BD914
:1034B000394D206815F8011C0268936898473068F8
:1034C000294601358142F4D33448FFF7B1FD57F85E
:1034D000042B002A7FF47CAF019D55F8047F0195F1
:1034E000002F7FF46CAFFFF72BFD2D4D0D48FFF73C
:1034F0009FFD4621206803689A68904715F8011FD0
:103500000029F7D141F67831C2F20001086800289D
:1035100058D12448FFF78CFD48E000BFA41B0020D1
:1035200080580108E4770108605801087C580108B8
:10353000E0580108F0580108045901081C59010815
:1035400030590108785901088C5901089859010827
:10355000AC590108B8590108CC590108E4590108CF
:10356000F8590108145A0108505A0108285A01084C
:10357000741B0020C05A010894580108305A0108F1
:10358000A45801086C1B0020901B0020A8580108BB
:10359000681B0020345A0108A91B0020C0580108EC
:1035A000385A0108D0580108A81B002041F678338A
:1035B000C2F20003186803B0BDE8F08F0348FFF7BC
:1035C00037FD00E70248FFF733FDEFE7C458010875
:1035D000D8580108AFF30080AFF30080AFF300804C
:1035E000F8B54D4EB3699C68651C2846FEF7E8F9AE
:1035F000021B5142514107460120FFF741FD00B136
:10360000F8BDB06983680220EA1A51425141FFF7C0
:1036100037FD0028F4D13846FEF7D2F9B5EB000C9F
:10362000DCF1000050EB0C010320FFF729FD00281E
:10363000E6D1B3699A680420B2EB040EDEF1000112
:1036400051EB0E01FFF71CFD0028D9D1202383F395
:103650001188B769BB689A1CBA60034683F3118866
:10366000B0698168A71C0520CB1B5A4252EB0301AD
:10367000FFF706FD0028C3D12846FEF7A1F9001B7D
:10368000414241410620FFF7FBFC0028B8D1B36955
:103690009A680720B7EB020CDCF1000151EB0C013A
:1036A000FFF7EEFC0028ABD1B069036C0820B5EB46
:1036B000030EDEF1000252EB0E01FFF7E1FC0028E1
:1036C0009ED1E71C3846FEF77BF9281A414241415A
:1036D0000920FFF7D5FC002892D1B3699A680A2027
:1036E000BB1A59425941FFF7CBFC002888D1B06979
:1036F000026C0B20BB1A59425941FFF7C1FC00284C
:103700007FF47EAF202383F31188B16903468C6078
:103710000C6483F3118873E730150020AFF3008049
:10372000F0B541F23057C2F2000745F64006BB69DA
:1037300083B0C0F601069A68706843F6011547F237
:10374000C011C0F60005C0F60101043A2B460091F5
:103750004FF49871FEF71CF9BC693168A36841F613
:103760009034C2F200045A1F606045F6F020C0F6A3
:1037700001002B46009008464FF49871FEF708F9B7
:10378000BA6931699368206045F6E020C0F601000F
:103790005A1E00902B4608464FF49871FEF7F8F831
:1037A000BA69F1689268206145F6E420C0F601002C
:1037B0002B460090023A08464FF49871FEF7E8F85D
:1037C0002023E06083F31188BB69B0689A6845F6EE
:1037D000E821C0F601012B460091033A4FF498719D
:1037E000FEF79EF80023A06083F31188A068FEF71F
:1037F000FFF8FFF7D5FC45F6EC210120C0F60101EA
:1038000003B0BDE8F040FFF753BC00BFAFF300804A
:103810002DE9F04141F23058C2F2000845F6400669
:10382000D8F8183082B0C0F601069A68306843F6BE
:10383000011545F6F024C0F60005C0F60104053A6E
:103840002B4600944FF49871FEF7A2F841F690349D
:10385000C2F20004D8F8181077688B68206047F22D
:10386000C010C0F601001A1F00902B464FF498714B
:103870003846FEF78DF8D8F81820B768936860606E
:1038800045F6E820C0F60100DA1E00902B464FF402
:1038900098713846FEF77CF8D8F81810F7688A68EF
:1038A000A06045F6E420C0F60100023A2B460090E5
:1038B0004FF498713846FEF76BF8D8F8183036692F
:1038C0009A68E06045F6E020C0F601004FF4987178
:1038D000013A2B4600903046FEF75AF82061FFF778
:1038E0005FFC45F6EC210120C0F6010102B0BDE805
:1038F000F041FFF7DDBB00BFAFF30080AFF3008006
:1039000008B50078FFF7ACFB002008BDAFF30080DE
:1039100038B51C4DFFF794FCEC686420FEF788F87E
:10392000012004F1640104F16502FFF701FC00B11C
:1039300038BDEC686420FEF77BF8022004F16401D6
:1039400004F16502FFF7F4FB0028F1D1EC684FF4B5
:103950007A70FEF76DF8032004F57A7104F2E9320B
:10396000FFF7E6FB0028E3D1EC6804F16405284684
:10397000FEF76EF80420294604F16502BDE83840E0
:10398000FFF7D6BB20150020AFF30080AFF3008017
:1039900040F60000C2F200000021FEF779B900BF36
:1039A00040F60000C2F200000021FEF771B900BF2E
:1039B00040F60000C2F200000021FEF769B900BF26
:1039C00000B587B0002103A8FEF762F9002103A823
:1039D000FEF79EF9059901200029CCBF00210121A5
:1039E000FFF74EFB08B107B000BD304B9869304B74
:1039F0008268304803A9013A009100684FF4987139
:103A0000FDF7C6FF2C4B186003A8FEF7B1F9059926
:103A100002200029CCBF00210121FFF731FB002843
:103A2000E1D1202383F31188059A002A36DDFDF7C2
:103A30002FFF002383F31188059903209942D4BFF7
:103A400000210121FFF71CFB0028CCD1059904209F
:103A50004B1E5A4252EB0301FFF712FB0028C2D162
:103A6000202383F31188059800281BDDFDF710FF44
:103A7000002383F31188059903209942D4BF0021C4
:103A80000121FFF7FDFA0028ADD1059905204B1E55
:103A90005A4252EB0301FFF7F3FAA4E703A8FEF73B
:103AA000BFF9C4E703A8FEF7BBF9DFE73015002034
:103AB000C13A000840580108901B0020AFF3008075
:103AC00008B5202383F311888368002B06DDFDF7FA
:103AD000DFFE002383F31188184608BDFEF7A0F926
:103AE000F5E700BFAFF30080AFF30080AFF30080D5
:103AF00010B540F60004C2F200042046FEF738F983
:103B00002046FEF775F9002010BD00BFAFF300801E
:103B100010B5044640F60000C2F20000FEF728F996
:103B20002078FFF79DFA002010BD00BFAFF30080A2
:103B300008B53220FDF77CFF202383F3118840F67F
:103B40000000C2F20000FEF76BF9FDF7A1FE0023B2
:103B500083F31188184608BDAFF30080AFF30080EF
:103B60002DE9F043DFF83C81444CD8F81830266842
:103B70009A68434F434B444D85B04FF498710532DA
:103B800000973046FDF704FFD8F8181063688A687C
:103B900028603E4803934FF498710132394B0090EE
:103BA0000398FDF7F5FED8F81810A2688B686860D6
:103BB000374803924FF49871DA1C0090314B039808
:103BC000FDF7E6FED8F81810E2688B68A860314867
:103BD00003924FF498711A1D00902A4B0398FDF739
:103BE000D7FED8F8181024698A68E8602A48254B5F
:103BF00000904FF4987102322046FDF7C9FE274C21
:103C000028612046FEF7F4F82046FEF7F1F820463A
:103C1000FEF7EEF82046FEF7EBF82046FEF7E8F850
:103C2000FFF7BEFA01201E49FFF742FA814610B1A4
:103C300005B0BDE8F083D8F81810124B8A680097D9
:103C400030464FF498710532FDF7A2FE202328601C
:103C500083F3118802212046FEF7F2F84B4683F3E6
:103C60001188FFF79DFAA36802205A1E5142514164
:103C700005B0BDE8F043FFF703BA00BF40580108A4
:103C8000E05A0108113B0008901B0020E45A01088B
:103C9000E85A0108C0710108F05A01080008002024
:103CA000EC5A010830150020AFF30080AFF300801C
:103CB00010B5214B214C9869214B826882B00020BD
:103CC0000090204801324FF498710068FDF760FEC3
:103CD0001D4B214618602046FEF702F9216801209D
:103CE0000A1B534253EB0201FFF7CAF908B102B0B5
:103CF00010BDA1680220D1F1010138BF0021FFF7FA
:103D0000BFF90028F3D121462046FEF7E9F82268E2
:103D10000320131B59425941FFF7B2F90028E6D19D
:103D2000A2680420D2F1010138BF002102B0BDE831
:103D30001040FFF7A5B900BF301500200008002093
:103D4000F13A000840580108901B0020AFF30080B2
:103D500070B5A04C002182B02046FEF739F8B0F1D2
:103D6000FF33594259410120FFF78AF908B102B0E7
:103D700070BD22680220B2EB040CDCF1000353EBAF
:103D80000C01FFF77DF90028F1D1A1680320D1F1E2
:103D9000010138BF0021FFF773F90028E7D18E4DEC
:103DA0008E4BAA69916800908D484A1E00684FF4B6
:103DB0009871FDF7EDFD8B4B4FF4FA7118602046BA
:103DC000FEF706F80546FFF7EBF90420D5F10101EF
:103DD00038BF0021FFF754F90028C8D12268052018
:103DE000B2EB040EDEF1000151EB0E01FFF748F9D2
:103DF0000028BCD1A3680620D3F1010138BF0021FF
:103E0000FFF73EF90028B2D1774EFFF719FA4120AB
:103E1000F668FFF725F94FF4FA712046FDF7D8FF51
:103E2000B0F1FF30424252EB00010720FFF728F9C2
:103E300000289CD1216808200B1B5A4252EB030139
:103E4000FFF71EF9002892D1A1680920D1F10101E4
:103E500038BF0021FFF714F9002888D14220FFF76E
:103E6000FFF84FF4FA712046FDF7B2FFB0F1FF3CC6
:103E7000DCF1000050EB0C010720FFF701F90028EE
:103E80007FF475AF23680820B3EB040EDEF1000267
:103E900052EB0E012546FFF7F3F800287FF467AFD9
:103EA000A1680920D1F1010138BF0021FFF7E8F82E
:103EB00000287FF45CAF4320FFF7D2F84FF4FA718B
:103EC0002046FDF785FFB0F1FF30434253EB000180
:103ED0000720FFF7D5F800287FF449AF22680820B3
:103EE000131B59425941FFF7CBF800287FF43FAF2D
:103EF000A2680920D2F1010138BF0021FFF7C0F804
:103F000000287FF434AF4420FFF7AAF84FF4FA7189
:103F10002046FDF75DFFB0F1FF3CDCF1000050EB07
:103F20000C010720FFF7ACF800287FF420AF2368CE
:103F30000820B3EB040EDEF1000151EB0E01FFF798
:103F40009FF800287FF413AFA2680920D2F1010185
:103F500038BF0021FFF794F800287FF408AF452010
:103F6000FFF77EF84FF4FA712046FDF731FFB0F10C
:103F7000FF30434253EB00010720FFF781F8002890
:103F80007FF4F5AE216808200A1B534253EB02016F
:103F9000FFF776F800287FF4EAAEA1680920D1F196
:103FA000010138BF0021FFF76BF800287FF4DFAE76
:103FB0000A200E49FFF77CF800287FF4D8AE0B20CA
:103FC00006F6C41106F6C91202B0BDE87040FFF74C
:103FD000AFB800BF0008002030150020313B0008BA
:103FE00040580108901B002020150020EC5A0108C1
:103FF000F0B541F23053C2F2000345F6400599692D
:1040000083B08E68C0F6010545F6E024C0F60104D1
:1040100044F21113721C009428684FF49871C0F692
:104020000003FDF7B5FC41F69034C2F200046F685E
:10403000206045F6E820C0F6010044F2E103B21C1E
:1040400000904FF49871C0F600033846FDF7A0FCCD
:10405000AD68606045F6E420C0F6010044F2A103BB
:104060004FF49871F21CC0F6000300902846FDF74B
:104070008FFC40F62C05C2F20005A0602846FEF732
:104080008FF82846FEF78CF8FFF78AF845F670415E
:104090000120C0F6010103B0BDE8F040FFF708B809
:1040A00010B5044640F61C00C2F20000FDF7C0FF48
:1040B0002078FEF7D5FFFDF7E3FF002010BD00BF1D
:1040C00010B5044640F60C00C2F20000FDF7B0FF48
:1040D0002078FEF7C5FFFDF7D3FF002010BD00BF1D
:1040E00010B5044640F60C00C2F20000FDF7A0FF38
:1040F00040F62C00C2F20000FEF7CAF82078FEF766
:10410000AFFFFDF7BDFF002010BD00BFAFF3008083
:1041100010B5044640F61C00C2F20000FDF788FF0F
:1041200040F60C00C2F20000FDF782FF40F62C00C2
:104130004FF0FF31C2F20000FEF7E2F82078FEF700
:104140008FFFFDF79DFFFDF79BFF002010BD00BF17
:1041500040F62C0008B5C2F20000FEF719F840F650
:104160000C00C2F20000FDF7F3FE40F61C00C2F2A4
:104170000000BDE80840FDF7EBBE00BFAFF30080D4
:1041800008B540F62C00C2F20000FEF701F840F638
:104190000C00C2F20000BDE80840FDF7D9BE00BF28
:1041A00008B540F62C00C2F20000FDF7F1FF40F622
:1041B0000C00C2F20000BDE80840FDF7C9BE00BF18
:1041C00040F60C00C2F20000FDF7C2BEAFF3008063
:1041D00008B540F60C00C2F20000FDF7B9FE40F64B
:1041E0001C00C2F20000BDE80840FDF7B1BE00BFF0
:1041F00008B540F60C00C2F20000FDF7A9FE40F63B
:104200001C00C2F20000BDE80840FDF7A1BE00BFDF
:1042100040F60C00C2F20000FDF79ABEAFF300803A
:1042200040F60C00C2F20000FDF792BEAFF3008032
:10423000F0B541F23053C2F2000345F640069969E9
:1042400083B08F68C0F6010644F2E10545F6F0241C
:10425000C0F60005C0F601047A1C2B4600943068B5
:104260004FF49871FDF794FB41F69034C2F20004CC
:10427000BA1C206047F2C010C0F601002B46009027
:104280004FF498717068FDF783FB606045F6E82095
:10429000C0F60100FA1C2B4600904FF49871B068EC
:1042A000FDF776FBA06045F6E420C0F601003A1D5C
:1042B0002B4600904FF49871F068FDF769FB366962
:1042C000E06045F6E020C0F601004FF498717A1DD9
:1042D0002B4600903046FDF75BFB206140F62C003A
:1042E000C2F20000FDF79CFFFEF75AFF45F6EC21F5
:1042F0000120C0F6010103B0BDE8F040FEF7D8BED2
:10430000F0B541F23053C2F2000345F64006996918
:1043100083B08F68C0F6010644F2E10545F6F0244B
:10432000C0F60005C0F601047A1C2B4600943068E4
:104330004FF49871FDF72CFB41F69034C2F2000463
:104340007168206047F2C010C0F60100BA1C2B460D
:10435000009008464FF49871FDF71AFBB168606051
:1043600045F6E820C0F60100FA1C2B4600900846EE
:104370004FF49871FDF70CFBF168A06045F6E4205E
:10438000C0F601003A1D2B46009008464FF4987184
:10439000FDF7FEFA3269E06045F6E021C0F6010162
:1043A0002B46009110464FF498717A1DFDF7F0FAF4
:1043B0002023206183F3118840F62C04C2F200040C
:1043C0002046FDF705FF2046FDF702FF2046FDF7DA
:1043D000FFFE2046FDF7FCFE2046FDF7F9FEFDF747
:1043E00057FA002383F31188FEF7DAFE45F6EC2135
:1043F0000120C0F6010103B0BDE8F040FEF758BE51
:10440000F0B52C4F2C48BB692C4E9C682C4D85B0C8
:10441000FDF70EFE2B4A30682B4B00924FF498713B
:10442000621CFDF7B5FA7168286028480391A21C48
:104430004FF49871244B00900398FDF7A9FAB368E4
:10444000686023480393E21C4FF498711E4B009060
:104450000398FDF79DFAF268A8601E4803924FF496
:104460009871221D184B00900398FDF791FA366958
:10447000E8601948144B00904FF49871621D304663
:10448000FDF786FA2861FDF7FBFDFEF789FEB969A5
:104490008B6801201A1B51425141FEF7F1FD08B112
:1044A00005B0F0BD0D49022005B0BDE8F040FEF7B3
:1044B000FFBD00BF301500200C0800204058010847
:1044C000901B0020F05A0108C1400008C07101088B
:1044D000E85A0108E45A0108E05A0108EC5A0108B8
:1044E000F8B52E4D2E4CAB6920469E68FDF7B0FD09
:1044F00001460120FEF7C4FD00B1F8BD2046FDF7DE
:10450000A7FDD0F1010138BF00210220FEF7B8FD60
:1045100007460028F1D1202383F31188FDF7E0FD41
:104520003B4683F3118821680320B1EB040EDEF1D2
:10453000000252EB0E01FEF7A3FD0028DDD1A368B7
:104540000420D3F1010138BF0021FEF799FD0028B6
:10455000D3D1A869816805208A1B534253EB02011D
:10456000FEF78EFD0028C8D12046FDF761FDFDF75E
:10457000DFFD216806200A1B534253EB0201FEF7C0
:104580007FFD0028B9D1A1680720D1F1010138BF12
:104590000021BDE8F840FEF773BD00BF30150020D4
:1045A0000C080020AFF30080AFF30080AFF3008071
:1045B0002DE9F0468C4D8D4EAB6932689C688C4875
:1045C0008C4B8D4F85B004F10109039200904FF49C
:1045D00098714A460398FDF7DBF97668386087489A
:1045E000874B009004F1020A4FF49871524630460E
:1045F000FDF7CEF978608348FDF71AFDA9698B684D
:1046000001201A1B51425141FEF73AFD10B105B08D
:10461000BDE8F0866420FDF70BFAA86983680220E4
:10462000B3EB090251425141FEF72AFD0028EED1B9
:104630007548FDF7FDFCA86983680320B3EB090CFE
:10464000DCF1000252EB0C01FEF71AFD0028DED16E
:104650006420FDF7EDF9A9698B680420B3EB0A0E1D
:10466000DEF1000252EB0E01FEF70AFD0028CED16A
:10467000FDF706FDA86981680520B1EB09035A42E0
:1046800052EB0301FEF7FCFC0028C0D16420FDF7CB
:10469000CFF9A86981680620B1EB09035A4252EBB1
:1046A0000301FEF7EDFC0028B1D1FDF741FDA8693B
:1046B00081680720B1EB040CDCF1000353EB0C0123
:1046C000FEF7DEFC0028A2D1FEF76AFD4F4A494BF7
:1046D00000924FF498714A460398FDF759F93860F3
:1046E0004B48474B00904FF4987152463046FDF7C7
:1046F0004FF978604348FDF79BFCA9698B68082057
:10470000B3EB040EDEF1000252EB0E01FEF7B8FC33
:1047100000287FF47CAF6420FDF78AF9A8698168DE
:104720000920B1EB09035A4252EB0301FEF7A8FC42
:1047300000287FF46CAF3448FDF77AFCA8698168E3
:104740000A20B1EB09035A4252EB0301FEF798FC31
:1047500000287FF45CAF6420FDF76AF9AE69B168A8
:104760000B20B1EB0A0CDCF1000353EB0C01FEF75C
:1047700087FC064600287FF44AAF202383F3118884
:10478000FDF7AEFC334683F31188A86982680C20DC
:10479000B2EB090EDEF1000151EB0E01FEF770FCE9
:1047A00000287FF434AF6420FDF742F9AB699A68C2
:1047B0000D20B2EB090359425941FEF761FC002874
:1047C0007FF425AFFDF7B4FCA86982680E20131BA7
:1047D00059425941FEF754FC00287FF418AF05B048
:1047E000BDE8F046FEF7DCBC30150020405801085B
:1047F000E45A010841480008901B0020E05A0108D3
:10480000214800081C0800200C080020C071010885
:10481000E85A0108AFF30080AFF30080AFF30080E7
:1048200008B59620FDF704F940F60C00C2F200002E
:10483000FDF7FEFBFDF724FC002008BDAFF3008070
:1048400008B53220FDF7F4F840F61C00C2F2000073
:10485000FDF7EEFBFDF714FC002008BDAFF3008070
:104860002DE9F041304EDFF8E480304C84B0FEF7A3
:10487000E7FCB3692E499A68CF682E4BD8F8000040
:1048800000254FF49871053A0095FDF781F8B3695A
:10489000D8F804209B68039220601A1F4FF4987187
:1048A000254B00950398FDF773F8B169D8F80820F7
:1048B0008B6803926060DA1E4FF498711F4B00956D
:1048C0000398FDF765F8B169D8F80C208B6803925E
:1048D000A0609A1E4FF49871194B00950398FDF74C
:1048E00057F8B169D8F810608A68164BE0604FF449
:1048F0009871013A00953046FDF74AF82061FEF7BD
:104900004FFC01201049FEF7D3FB10B104B0BDE805
:10491000F081022007F16E0107F1730204B0BDE8D7
:10492000F041FEF705BC00BF30150020901B0020B1
:1049300020150020D14A0008814A0008514A000889
:10494000314A0008014A0008EC5A010840580108A1
:104950002DE9F041224EDFF8A480224C84B0FEF70E
:104960006FFCB36920499A68CF68204BD8F80000E3
:1049700000254FF49871013A0095FDF709F8B369E5
:10498000D8F804209B68039220609A1E4FF4987117
:10499000174B00950398FCF7FBFFB169D8F8086046
:1049A0008A68144B60604FF49871033A0095304662
:1049B000FCF7EEFFA060FEF7F3FB01200E49FEF7C7
:1049C00077FB10B104B0BDE8F081022007F164016B
:1049D00007F1690204B0BDE8F041FEF7A9BB00BFD2
:1049E00030150020901B002020150020514B00089E
:1049F000314B0008014B0008705C01084058010869
:104A000008B53220FDF714F840F61C00C2F2000091
:104A1000FDF70EFB0A20FEF7EBFBFDF731FB412013
:104A2000FEF71EFB002008BDAFF30080AFF300804F
:104A300008B52820FCF7FCFF1420FEF7D9FB422024
:104A4000FEF70EFB002008BDAFF30080AFF300803F
:104A500008B51420FCF7ECFF40F61C00C2F2000081
:104A6000FDF7E6FA0A20FEF7C3FBFDF709FB43203A
:104A7000FEF7F6FA002008BDAFF30080AFF3008028
:104A800008B50A20FCF7D4FF40F61C00C2F2000073
:104A9000FDF7CEFA1420FEF7ABFB40F60C00C2F295
:104AA0000000FDF7C5FA0A20FEF7A2FBFDF7E8FAC1
:104AB0000A20FEF79DFBFDF7E3FA4420FEF7D0FA4B
:104AC000002008BDAFF30080AFF30080AFF300809B
:104AD00040F60C0008B5C2F20000FDF7A9FA1E204E
:104AE000FEF786FBFDF7CCFA4520FEF7B9FA002069
:104AF00008BD00BFAFF30080AFF30080AFF30080CC
:104B000040F60C0008B5C2F20000FDF791FA28202B
:104B1000FEF76EFBFDF7B4FA0A20FEF769FB4320AF
:104B2000FEF79EFA002008BDAFF30080AFF30080CF
:104B300008B51420FCF77CFF2820FEF759FB422023
:104B4000FEF78EFA002008BDAFF30080AFF30080BF
:104B500008B52820FCF76CFF40F60C00C2F20000FC
:104B6000FDF766FA0A20FEF743FBFDF789FA4120BC
:104B7000FEF776FA002008BDAFF30080AFF30080A7
:104B800010B541F23052C2F2000245F6400391697D
:104B9000C0F6010382B08C681868009144F6114396
:104BA000C0F60003621C4FF49871FCF7F1FE41F669
:104BB0009032C2F200021060FDF76AFD446B21469C
:104BC000FDF786FDE0B2FEF74BFAFDF761FD446BA1
:104BD0002146FDF77DFDE0B2FEF742FAFDF758FDF4
:104BE000446B2146FDF774FDE0B2FEF739FA45F655
:104BF00070410120C0F6010102B0BDE81040FEF78F
:104C000057BA00BFAFF30080AFF30080AFF300806E
:104C100010B541210446FDF71BFD42212046FDF75A
:104C200017FD20464321FDF713FD002010BD00BFF6
:104C3000F0B57D4C616A01204B1F5A4283B052EBA4
:104C40000301FEF71DFA002845D1422120464FF00E
:104C5000FF32FDF7A5FDD0F1010138BF0021022090
:104C6000FEF70EFAB8BB432120464FF0FF32FDF7A6
:104C700097FDD0F1010138BF00210220FEF700FAB4
:104C800048BB442120464FF0FF32FDF789FDD0F1AB
:104C9000010138BF00210220FEF7F2F9D8B9452101
:104CA00020464FF0FF32FDF77BFDD0F1010138BF08
:104CB00000210220FEF7E4F968B9412120464FF0B7
:104CC000FF32FDF7B5FDD0F1010138BF002103200F
:104CD000FEF7D6F908B103B0F0BD582101222046F5
:104CE000FDF75EFDB0F1FF3CDCF1000050EB0C0184
:104CF0000420FEF7C5F905460028ECD1202383F3F4
:104D0000118858212046FDF75BFD2B46014683F3B1
:104D100011880520B1F1FF3EDEF1000353EB0E01D7
:104D2000FEF7AEF90028D6D1582101222046FDF722
:104D30007FFDB0F1FF356A4252EB05010620FEF718
:104D40009FF905460028C6D1202383F311885821F6
:104D50002046FDF77DFD2B46014683F31188072091
:104D6000B1F1FF335A4252EB0301FEF789F90028F3
:104D7000B1D1202383F31188676A0820D7F101019C
:104D800038BF0021FEF77CF92646074618B10023FC
:104D900083F311889FE7034683F31188202383F36D
:104DA0001188A5690920B5F1050CDCF1000151EB72
:104DB0000C01FEF765F9054618B13B4683F31188EF
:104DC00089E7034683F31188202383F31188A368BE
:104DD000E2680A20B2EB030EDEF1000151EB0E0196
:104DE000FEF74EF90346D0B983F31188052605E096
:104DF0009DF80400FEF734F9013E17D00A4D01A9D1
:104E00004FF0FF322846FDF75BFDD0F1010138BFBE
:104E100000210B20FEF734F90028E9D05BE72B4690
:104E200083F3118857E700BF340800200C20C849DD
:104E3000FEF73EF900287FF44EAF472128464FF099
:104E4000FF32FDF7ADFCD0F1010138BF00210D208C
:104E5000FEF716F900287FF43EAF01A928464FF06F
:104E6000FF32FDF72DFDD0F1010138BF00210E20EA
:104E7000FEF706F900287FF42EAF2A68AB680F20F2
:104E8000D21A51425141FEF7FBF800287FF423AFBC
:104E90002A68EB681020D21A51425141FEF7F0F80F
:104EA00000287FF418AF01A901222846FDF708FD6C
:104EB000B0F1FF30434253EB00011120FEF7E0F860
:104EC00000287FF408AF202383F31188284601A926
:104ED000FDF706FD3346024683F311881220B2F136
:104EE000FF3CDCF1000151EB0C01FEF7C9F8002892
:104EF0007FF4F1AE202383F311886B6A13205A1FCD
:104F000051425141FEF7BCF8002383F31188002879
:104F10007FF4E1AE202383F31188A5698D4C142022
:104F2000D5F1010138BF0021FEF7AAF80546002897
:104F30007FF42DAF034683F31188202383F3118878
:104F4000A368E2681520D21A51425141FEF798F841
:104F5000034600287FF463AF83F31188202383F393
:104F6000118841212046FDF72BFCD0F1010138BF0B
:104F700000211620FEF784F800287FF4ACAE422111
:104F80002046FDF71DFCD0F1010138BF002117209C
:104F9000FEF776F800287FF49EAE43212046FDF709
:104FA0000FFCD0F1010138BF00211820FEF768F88E
:104FB00000287FF490AE44212046FDF701FCD0F19B
:104FC000010138BF00211920FEF75AF805460028D4
:104FD0007FF481AE20464521FDF7F2FB2B460246C9
:104FE00083F311881A20D2F1010138BF0021FEF7A6
:104FF00047F800287FF46FAEE168A3681B20B1EB8F
:10500000030EDEF1000252EB0E01FEF739F8002824
:105010007FF461AE0525202383F311884D4C01A94F
:105020002046FDF75DFC0023014683F311881C2018
:10503000CB1A5A4252EB0301FEF722F800287FF404
:105040004AAE9DF80400FEF70BF8013DE3D11D20A8
:105050003F49FEF72DF800287FF43DAE202383F36F
:105060001188616A1E204B1F5A4252EB0301FEF762
:1050700007F82B4683F3118800287FF42CAE2023F9
:1050800083F31188A1691F20D1F1010138BF0021EC
:10509000FDF7F6FF2B4683F3118800287FF41BAE43
:1050A000E268A3682020D21A51425141FDF7E8FF7F
:1050B00000287FF410AE202383F311884521204679
:1050C000FDF7C6FBD0F1010138BF00212120FDF71B
:1050D000D7FF00287FF4FFAD44212046FDF7B8FB41
:1050E000D0F1010138BF00212220FDF7C9FF0028BF
:1050F0007FF4F1AD43212046FDF7AAFBD0F1010179
:1051000038BF00212320FDF7BBFF00287FF4E3AD6B
:1051100042212046FDF79CFBD0F1010138BF002160
:105120002420FDF7ADFF00287FF4D5AD094C4121C7
:105130002046FDF78DFB0023024683F311882520CE
:10514000B2EB030CDCF1000353EB0C0104E000BFF5
:10515000EC5A010834080020FDF792FF00287FF484
:10516000BAADE168A2682620B1EB020EDEF10003C1
:1051700053EB0E01FDF784FF00287FF4ACAD05244E
:10518000202383F311884A4D01A92846FDF7A8FB87
:105190000023014683F311882720CA1A534253EB98
:1051A0000201FDF76DFF00287FF495AD9DF8040026
:1051B000FDF756FF013CE3D128203E49FDF778FF7B
:1051C00000287FF488AD202383F31188696A2920A1
:1051D0004A1F534253EB0201FDF752FF234683F36C
:1051E000118800287FF477AD202383F31188A96903
:1051F0002A20D1F1010138BF0021FDF741FF2346EC
:1052000083F3118800287FF466ADEA68AB682B2031
:10521000B2EB030CDCF1000151EB0C01FDF730FFA8
:1052200000287FF458AD2846FDF77AFA202383F34F
:1052300011886A6A2C20B2F1050EDEF1000353EBEF
:105240000E01FDF71DFF234683F3118800287FF42C
:1052500042AD202383F31188A9692D20D1F10101EA
:1052600038BF0021FDF70CFF234683F31188002887
:105270007FF431AD202383F31188AB682A682E2098
:10528000D21A51425141FDF7FBFE234683F31188A8
:1052900000287FF420AD202383F311882A68EB686F
:1052A0002F20D21A51425141FDF7EAFE6FE500BFAF
:1052B00034080020EC5A0108AFF30080AFF30080FF
:1052C00040F6340041F27851C2F20000C2F200010F
:1052D0000522FDF70DBA00BFAFF30080AFF30080E9
:1052E0004FF0FF30FDF74CB8AFF30080AFF3008014
:1052F0004FF0FF30FDF744B8AFF30080AFF300800C
:105300004FF0FF30FDF73CB8AFF30080AFF3008003
:105310002DE9F04205208CB0FDF74AF84FF0FF3040
:10532000FDF7B6F80138414241410120FDF7A8FEE2
:1053300010B10CB0BDE8F0824FF0FF30FDF7A8F8D7
:10534000021F534253EB02010220FDF799FE002891
:10535000EFD14FF0FF30FDF713F8D0F1010138BF66
:1053600000210320FDF78CFE0028E2D1744D754F1B
:10537000754EFDF765FF7549AC690A68A068039230
:105380004FF49871421E724B00940398FC68FCF72E
:10539000FFFA30604FF0FF30FDF77AF804F1320188
:1053A000814604F137020420FDF7C2FE0028C0D177
:1053B0000520B9F1010359425941FDF761FE00286A
:1053C000B7D14FF0FF30FCF7DBFFD0F1010138BF60
:1053D00000210620FDF754FE0028AAD1FDF7E0FECB
:1053E0000520FCF7E5FF4FF0FF30FDF771F8B0F155
:1053F000050CDCF1000050EB0C010720FDF740FE2E
:10540000002896D14FF0FF30FCF7BAFFD0F1010130
:1054100038BF00210820FDF733FE002889D1FDF7B1
:105420000FFFAC694A4BA268039800944FF498713F
:10543000013AFC68FCF7ACFA30604FF0FF30FDF742
:1054400047F804F13201814604F137020920FDF7E3
:105450006FFE00287FF46DAF0A20B9F1010EDEF176
:10546000000353EB0E01FDF70BFE00287FF461AF44
:105470004FF0FF30FCF784FFD0F1010138BF00216D
:105480000B20FDF7FDFD00287FF453AFDFF8D0902F
:10549000304CFDF785FE484604A90122C9F800906A
:1054A0002460FCF73DFF08A904222046FCF738FFE2
:1054B000FDF7C6FEAD692849A868284B0091421E39
:1054C0004FF498710398FD68FCF762FA306005208C
:1054D000FDF71EF80C2005F1320105F13702FDF74A
:1054E00027FE00287FF425AF4FF0FF30FCF748FF80
:1054F000D0F1010138BF00210D20FDF7C1FD0028CA
:105500007FF417AFFDF74CFE484604A9FCF720FFD7
:10551000204608A9FCF71CFFD9F800200E20B2EBAA
:10552000090359425941FDF7ABFD00287FF401AF53
:1055300022680F20131B59425941FDF7A1FDF8E6DF
:105540003015002020150020901B00204058010835
:10555000A155000860080020E05A010871550008B4
:105560005C080020AFF30080AFF30080AFF3008051
:1055700040F65C0008B50021C2F20000FCF760FFB5
:105580003220FCF755FA40F66000C2F2000000211C
:10559000FCF756FF002008BDAFF30080AFF300809A
:1055A00010B504463220FCF743FA20460121FCF7EF
:1055B00027FF002010BD00BFAFF30080AFF30080D5
:1055C00010B51D4C88B00122204669462460FCF7C6
:1055D000A7FE204604A90222FCF7A2FE21680120B2
:1055E000091B18BF0121FDF74BFD08B108B010BD24
:1055F00020466946FCF7ACFE22680220111B18BF4A
:105600000121FDF73DFD0028F0D1204604A9FCF75B
:105610009FFE236803201A1B51425141FDF730FDC4
:105620000028E3D107210548FCF71AFF04200449AC
:10563000FDF73EFDDAE700BF5C080020D05E010800
:10564000705C0108AFF30080AFF30080AFF300801F
:105650004320FDF705BD00BFAFF30080AFF300802E
:105660004220FDF7FDBC00BFAFF30080AFF3008028
:105670004120FDF7F5BC00BFAFF30080AFF3008021
:1056800008B500214FF0FF30FCF762FFD0F10101B7
:1056900038BF00210120FDF7F3FC00B108BD014631
:1056A0004FF0FF30FCF77CFFD0F1010138BF002143
:1056B0000220FDF7E5FC0028F0D101464FF0FF3055
:1056C000FCF796FFD0F1010138BF00210320FDF760
:1056D000D7FC0028E2D10A214FF0FF30FCF738FF59
:1056E000D0F1010138BF00210420FDF7C9FC0028DA
:1056F000D4D10A214FF0FF30FCF752FFD0F1010165
:1057000038BF00210520FDF7BBFC0028C6D10A21C7
:105710004FF0FF30FCF76CFFD0F1010138BF0021E2
:105720000620BDE80840FDF7ABBC00BFAFF300802A
:1057300070B582B0FDF7ACFA01A90020FDF768FB57
:1057400010210020FDF7D4FA011C18BF01210446E6
:105750000120FDF795FC054608B102B070BD20465A
:10576000FDF70EFB6FF0FF012846FDF7C1FAD0F1FF
:10577000010138BF00210220FDF782FC0028ECD196
:1057800001A97E48FDF744FB10217C48FDF7B0FAE3
:10579000102105467948FDF7ABFA102104467748F9
:1057A000FDF7A6FA06462846FDF7EAFA2046FDF779
:1057B000E7FA3046FDF7E4FA69467048FDF728FB42
:1057C000B0F1010EDEF1000151EB0E010320FDF7F7
:1057D00057FC0028C1D110216848FDF789FA102133
:1057E00004466648FDF784FA102105466348FDF734
:1057F0007FFAFDF7C5FA2846FDF7C2FA2046FDF705
:10580000BFFA69465D48FDF703FB0138424252EB9F
:1058100000010420FDF734FC00289ED111215748D7
:10582000FDF766FA102104465448FDF761FA054673
:105830002046FDF7A5FA69465048FDF7E9FA831EB0
:10584000594259410520FDF71BFC002885D1102144
:105850004A48FDF74DFA694604464848FDF7D8FA2C
:10586000012800F0898069464448FDF7D1FA0238E2
:10587000424252EB00010620FDF702FC00287FF4B3
:105880006CAF2846FDF77CFA2046FDF779FA6946A9
:105890003A48FDF7BDFAB0F1010CDCF1000353EB1F
:1058A0000C010720FDF7ECFB00287FF456AF102118
:1058B0003248FDF71DFA102105463048FDF718FA69
:1058C00004462846FDF75CFA69462C48FDF7A0FA25
:1058D000B0F1020EDEF1000151EB0E010820FDF7E0
:1058E000CFFB00287FF439AF20212448FDF700FAD0
:1058F000FDF746FA2046FDF743FA69461F48FDF7D3
:1059000087FA0138424252EB00010920FDF7B8FB4B
:1059100000287FF422AF69461848FDF779FA00990C
:105920001648FDF7E5F9694604461448FDF770FA94
:10593000D0F1010138BF00210A20FDF7A1FB0028AA
:105940007FF40BAF2046FDF71BFA69460B48FDF7C5
:105950005FFA431E594259410B20FDF791FB002885
:105960007FF4FBAE9DE80A000C20CA1A534253EBA9
:105970000201FDF785FBF0E601467CE7B81B00203D
:1059800041F6B83041F27851C2F20000C2F2000193
:105990004FF4BE62FDF79CB9AFF30080AFF3008017
:1059A00000207047AFF30080AFF30080AFF30080BA
:1059B00040F66400C2F200004FF498710022FDF737
:1059C00047BA00BFAFF30080AFF30080AFF30080B1
:1059D00038B5574C5748256805222946FDF740FA47
:1059E0005448FDF77DFA011C18BF01210120FDF785
:1059F00047FB002840F08A804E48FDF771FA011CF1
:105A000018BF01210120FDF73BFB00287ED149484A
:105A1000FDF766FA011C18BF01210120FDF730FBDC
:105A2000002873D14348FDF75BFA011C18BF012120
:105A30000120FDF725FB002868D13E48FDF750FA0C
:105A4000011C18BF01210120FDF71AFB00285DD1C0
:105A50003848FDF745FAD0F1010138BF0021022096
:105A6000FDF70EFB002851D132482946FDF750FAC8
:105A700030486168FDF74CFA2E48A168FDF748FAF6
:105A80002C48E168FDF744FA21692A48FDF740FAFD
:105A90002848FDF725FA011C18BF01210320FDF756
:105AA000EFFA002832D12348FDF71AFA011C18BF7B
:105AB00001210320FDF7E4FA40BB1E48FDF710FA70
:105AC000011C18BF01210320FDF7DAFAF0B91948CB
:105AD000FDF706FA011C18BF01210320FDF7D0FADB
